:400000000010002011000000E5060000E506000010B500F089FBC04670B51F4C23688022D20213432360182000F076FE22681B4B134023601A4A1B4B1A6030221A4B1A6029
:40004000103A1A4B1A60103A194B1A600132194B1A601032184B1A6082221206174B1A6000252560164A174B1A60174A174B1A60174A184B1A60184A184B1A60184A194B01
:400080001A601949092000F0EDFD092000F0D4FD164B1D6070BDC04600010B40FFFFFBFF0600008004010B40080202400C0202401C020240200202403002024008010B4024
:4000C00007000080000002400E00008040000240100000808000024017000080040002407FBB008044000240290F00000C020B4010B572B600240FE03348620013195900C5
:400100000B00411889881A5AC31858880004104300F0E2FA0134E4B2012CEDD92A490C312A483C3000F0B6FA80225200284B1A800121284B1970FD3A274B1A60274A284BE6
:400140001A609922274B1A6099221204264B1A60A822D203254B1A60254A264B1A6080221205254B1A6080229205244B1A60244A244B1A60244803783C22934314221343FC
:40018000DBB20370214A107816230343DBB213701F4B19601F4A204B1A6043221F4B1A601F4A204B1A6040221F4B1A6002231F4A136030311E4A11601E4A1360FFF72CFF78
:4001C00000F082FA10BDC046DC6F00005C70000000600F4002600F4008000140EEEE00060C0001401000014020500F4028500F400400990030500F4034500F4038500F40E4
:40020000166606002001054001700F4000700F4000020440B66DDB000802044000030440A4ED0100080304401803044000040440080404401804044010B5064C2378002B69
:4002400007D1054B002B02D0044800E000BF0123237010BD9001002000000000846F0000084B10B5002B03D00749084800E000BF07480368002B00D110BD064B002BFBD027
:400280009847F9E70000000094010020846F0000C00000200000000010B51949194B186802F0BAFB184902F0EDF9184902F0B4FB174B186004F00EFC164A174B03F01CFE63
:4002C0000022164B02F0C8FE04F058FC144C0F4902F0A2FB134902F0D5F92060022000F0CBFB00F08BFB02F079FE6060FC21890502F092FB216802F08FFBA06010BDC0461F
:400300000000A0402002002000F07F450000C84224020020DF4F8D976E12E33F00B87440AC01002000247449F0B587B0012000F0A7FF0A2000F0E6FC002000F0A1FF6420C6
:4003400000F0C8FC022000F047FC002000F058FC02F0FCFD364B1860364E374B9968306802F06EFC041C354F3860706804F0B2FB00900191211CB06802F062FC211C02F086
:4003800081F904F0A7FB01F05FFA02900391B568291C281C02F040FB04F09CFB029A039B03F0AAFD049005913C68211C281C02F033FB011C01F0F0FF051C211C201C02F093
:4003C0002BFB011C281C02F03BFC041C201C04F081FB01F09BFA029003913C68211CB06802F02EFC04F076FB029A039B03F084FD02000B000498059903F0F8FF02000B006F
:400400000098019903F078FD0D4A0E4B03F074FD04F0B4FB0C4B18600C49201C02F0FCFA316802F02FF90A4B186007B0F0BDC04620020020C4000020AC01002030020020F4
:40044000FCA9F1D24D62503F4C0200200000C8422C020020D0B582B0012000F07DFE012000F07AFE444B9C68444B1968201C01F075FF002805D14249201C01F083FF0028A0
:4004800040D00021002000F0C7FE3B4B986804F021FB06000F003B4C3B4B186804F01AFB0090019132003B003849200005F0BAF8200000F03FFE002000F04AFE344800F00D
:4004C00039FE0021012000F0A7FE324B186804F001FB06000F00304B186804F0FBFA0090019132003B002D49200005F09BF8200000F020FE2A4800F01DFE012000F066FD3C
:4005000000F0D4FE1C4B9C681C4B1968201C01F039FF002805D11A49201C01F01FFF002828D000F025FF7F2000F0D4FE012000F013FE0521002000F06FFE1A4800F0FAFDF2
:400540000D4B986804F0C6FA06000F000D4C164B186804F0BFFA0090019132003B001349200005F05FF80021012000F055FE200000F0E0FD02B0D0BDAC010020C4000020BA
:4005800000004040F001002024020020886F0000986F00004C0200202C0200209C6F0000AC6F0000B06F000030020020B86F000030B587B000F0F6FA00F004FB16212B4857
:4005C00000F0D6F900F00AF900F046FA00F014FE0C2000F0C1FD264800F03CFE62B6254800F0FCFEFFF7A0FEFFF734FF224B986804F070FA04000D00204B186804F06AFA5A
:40060000049005911E4B186804F064FA029003911C4B186804F05EFA0090019122002B0019491A4804F0FEFF00F074F9C30605D500F0BCF900F0C6F900F086F900F06AF9C2
:40064000C30703D500F0B8F900F06AF90022104B1A7006E00D4AD15C044AD15401330C4A13700B4B1B78152BF4D9BBE734020020E870000099020000AC0100202C020020F7
:400680004C02002024020020C86F00000802002028020020F0B50025002711E0BB00C658F3B2FF22964308E06A008A181478A419527822700135013BDBB2002BF4D10137C1
:4006C000072FEBD9F0BDC0468022D202014B1A607047C04600031A4010B50A00002104F023FB10BD10B504F0F3FA03680C2B00D1FEE7FEE710B50300094A1068C318094A84
:400700009A1A802189008A4202DC054A136005E004F0DEFA0C2303600120404210BDC046D00000208802002070B50F4E0F4D13E029686B68AC68002202E001C901C304320B
:40074000A242FAD1E868002202E0002102C304328242FAD11035013E002EE9D104F0BEFAFFF726FFFEE7C046010000000074000010B500230AE0032B03D89A0009495058C9
:4007800000E009489900094A885001332F2BF2D9FFF7AEFC8022D205116801230B43136010BDC04600000000E50600000000002010B50B2000F040FA10BDC04610B500F0F4
:4007C0003BF810BD10B5044A1368802109060B431360FFF7EDFF10BD0000074010B5064B1B78002B04D1FFF7E9FF0122024B1A70FFF7E8FF10BDC046B80100200A4B1B6822
:40080000DB050DD5094B1B685B0409D4064B1968074A0A401A601A68802149000A431A600222044B1A6070470000074060000740FFFEFFFF6C00074010B51F4A11680C23B3
:400840000B431360802252001C4B1A601C4A1D4B1A601D4B1D4A136000241D4A14601D491D4A11601D4A13601D4B1C600B2000F0EDF903210B2000F007FA1A490B2000F09E
:40088000F1F9194B1C60194B1C604C22FF32184B1A60184B1C60184B1C60184B1C603C3AFF3A174B1A70174B1C70174B1C60174B1C60174B1C7010BD700007400000074077
:4008C00077080040600007400701008000030740040307402000FE001003074000020740040207401D140000C80E0740880E0740480F0740080F0740C80F0740880F074041
:40090000500200205C020020540200206002002074020020014B1878C0B270475C02002010B50B2000F092F9064A14780F231C4013780D218B4313700B2000F07DF9200026
:4009400010BDC0465C02002010B50B2000F07EF9064B1C780F229443197820320A401A700B2000F069F9200010BDC0465C02002070B504000D0000280ED00B2000F066F987
:40098000064B1C60064B1D600023064A1360064A13600B2000F050F970BDC04670020020640200205402002058020020014B18687047C046600200200022014B1A607047AA
:4009C000540200200022014B1A6070476002002010B500F01BFD044A116801230B43136000F018FD10BDC046000005400004000C014B18607047C04608010540024B18681E
:400A00000004000C7047C046080105400004000C014B18607047C04614010540014B18607047C0463801054010B581229204074B1A604D22064B1A600220FFF7EFFF05485A
:400A4000FFF7E4FF0020FFF7D1FF10BD0001054024010540FFFF000010B5064B1B78002B04D1FFF7E1FF0122024B1A70FFF7B0FF10BDC046C0010020014B18607047C046E9
:400A80003001054010B503210E2000F0FDF824490E2000F0E7F80122224B1A60224B1B68002B01DA214900E02149224A13680B431360214A214B1A60214A224B1A60002338
:400AC000214A1360214A22490A6022490A6022490A688020400202430A60204A1360204A136001331F4A136002211F4A11601F4908681F4A024013430B6000230CE09A00E1
:400B00001C495018002101605C001B482152802040011A4950500133002BF0D010BDC0462D0C000020001A4080031A40700210517002005100001A408400008004001A407C
:400B40000000FF0718001A401C001A400400040010001A4014001A4000031A4028021A4038021A4018021A40000F1A4030001A40FFFFFFDF80001A407C02002078020020DD
:400B800010B5074B1B68002B08DB054A1368802109060B4313600A2000F0B4F810BDC04600001A4010B5064B1B78002B04D1FFF769FF0122024B1A70FFF7E2FF10BDC046B4
:400BC000C1010020034A1368802149020B4313607047C04604001A40020083070CD0074B1B680120184001D19307F8D4002804D00122024B1A6000E00020704710021A408C
:400C000010B5041E02D0002000F02AF8002C07D1A400054B9C46644420680004000C00E0002000B210BDC04680011A40014B1A681A60704710021A401F2318401E3B83402E
:400C4000014A13607047C04600E100E01F2318401E3B8340014A13607047C04680E100E001BE704770B504000D001F2802D90020FFF7F6FF1034A40080239B059C46644438
:400C80002068256070BDC04670B504000E00032902D90020FFF7E4FF1F2C02D90020FFF7DFFF03252540ED00063500F0AFFBA408A400074B9C46644421680323AB409943B2
:400CC0000B003100A9401943216000F0A3FB70BD00E400E010B5040006E0084B586800F08BFB074B9C46644480231B029C42F4D8024B9868604300F07FFB10BDD4000020DA
:400D00000080FFFF10B5034B1B7B584300F074FB10BDC046D4000020F0B557464E46C0B483B0040000F072FB0190E71E2D2F74D83F4B1B78DBB29C4208D83E4B1B78DBB29E
:400D40009A463D4B1B78DBB2994631E03B4B1B78DBB29C4208D83A4B1B78DBB29A46394B1B78DBB2994623E0374B1B78DBB29C4208D8364B1B78DBB29A46354B1B78DBB20B
:400D8000994615E0334B1B78DBB29C4208D8324B1B78DBB29A46314B1B78DBB2994607E02F4B1B78DBB29A462E4B1B78DBB299462D4BDE5D2F2E09D92A2C07D919222B4B59
:400DC0001A60052000F018FB192503E0274B1D683F231D40B54206D9234BDA5D234B1A60052000F009FB1F4B9C4664442378DBB21F4A13601F4B52461A601F4B4A461A6016
:400E00000520FFF77FFFB5420AD2174BDA5D174B1A60052000F0F0FA02E00020FFF720FF019800F0F7FA03B00CBC91469A46F0BDC0F1FF0FC1F1FF0FC2F1FF0FC3F1FF0F60
:400E4000C4F1FF0FC5F1FF0FC6F1FF0FC7F1FF0FC8F1FF0FC9F1FF0FCAF1FF0FCBF1FF0FCCF1FF0FCDF1FF0FB87000002CFF0B4028FF0B401CFF0B4020FF0B40034B1868F9
:400E8000C0231B02184000D00120704700010B4010B500F0BBFA044A1368C02109020B43136000F0B7FA10BD00010B4010B500F0ADFA08490A68084B1A408024E401224392
:400EC0000A600A6813408022120213430B6000F0A1FA10BD00010B40FF3FFFFF70B5050000F094FA0400FFF7C9FF002803D0FFF7DDFF012100E0002108482840084A15688B
:400F0000084B2B40184310601368012901D1FFF7BFFF200000F07EFA70BDC0460404040010020B40FBFBFBFF10B5244B1B685B0715D5234B1B685B070ED5224BD9690420DD
:400F400001401F4C22688A432260DA698243DA611B69002B00D098470420FFF7BFFF174B1B685B0518D5164B1B685B0510D5154BD9698022D2001140114802688A430260BF
:400F8000D969114A0A40DA615B69002B00D098478020C000FFF7A2FF084B1B685B030CD5074B1B685B0304D5064B9B69002B00D098478020C002FFF791FF10BD10020B4018
:400FC000E8000020C4010020FFFBFFFF044A1368DBB201218B430840184310607047C0460002044010B50C4C2268C0218A4322602268A2398A43226021684300DBB220228A
:401000001343D8B2084320600120FFF77BFE236820229343236010BD0002044070B505000F4C226840231343236023688022934323600020FFF766FE23681E2293432360CD
:4010400021686D00EBB220221343D8B2084320600120FFF757FE236820229343236070BD00020440F8B5274B1A68FE218A431A6025490868254A0240254802430A601A68B7
:4010800040218A431A60196880220A431A60CA277F000020FFF736FE1A4C23682026334323600120FFF72EFE1A4B1D682368B34323600020FFF726FE10231D4023683343B8
:4010C00023600120FFF71EFE2368B3432360002D02D10A20FFF716FE013F002D01D0002FD7D1084B1A6880218A431A601A687E318A431A60044A1168044B0B4006490B43BA
:401100001360F8BD00020440080204400780FFFF4812000004020440B06D000010B50400FFF7A0FF2009FFF779FF0F202040FFF775FF10BD70B505000078012404E0FFF751
:40114000EDFF285D0134E4B20028F8D170BDC04610B5FFF7E3FF10BD10B50400FFF782FF2009FFF73FFF0F202040FFF73BFF10BD10B52820FFF7AEFD0320FFF733FF05205E
:40118000FFF7A8FD0320FFF72DFF0F20FFF7A2FD0320FFF727FF0120FFF79CFD0220FFF721FF0520FFF796FD0620FFF7D5FF0E20FFF7D2FF2C20FFF7CFFF0820FFF7CCFFD8
:4011C0000120FFF7C9FF0C20FFF7C6FF0320FFF7C3FF0520FFF77EFD014800F03BF810BDE870000010B50C20FFF7B6FF0122014B1A7010BDE401002010B5064B5B78002BAC
:4012000004D1FFF7B5FF0122024B5A70FFF7EAFF10BDC046E401002010B501280BD0002804D002280CD003280FD012E08039C8B2FFF792FF0DE04039C8B2FFF78DFF08E073
:401240006C39C8B2FFF788FF03E02C39C8B2FFF783FF10BD70B50500FFF704FF4020FFF77BFF002404E0285DFFF758FF0134E4B23F2CF8D9FFF7F6FE8020FFF76DFF70BDDE
:4012800004490A68D2B210239A430001184010430860704700030440034A117880235B420B43DBB21370704770000F40024A11787F230B401370704770000F40014B187050
:4012C0007047C04600000F40014B18707047C04640000F40014B18707047C04620000F40014B18707047C04680000F40014B1878C0B2704760000F40014B1878C0B27047A9
:4013000050000F4010B501E0FFF7F6FFFFF7EEFFC306F9D410BDC04610B513490B783F2293430C221343DBB20B70104C227801231343DBB22370FF20FFF7C0FFFF20FFF751
:40134000C3FF7F20FFF7C6FF0020FFF7C9FF00F05DF8227810231343DBB2237000F05AF8FFF7D0FF10BDC04670000F4090000F4010B5064B1B78002B04D1FFF7CDFF0122E5
:40138000024B1A70FFF788FF10BDC046E60100208023014AD05070470000002010B5040000F034F8044A1368C0218B43A4011C43146000F02FF810BD10E400E08022520297
:4013C000014B1A607047C04600E100E080225202014B1A607047C04680E100E010B50400FFF7F4FF2000FFF7D3FF0320FFF7D6FFFFF7E4FF10BDC0460230800804D0C04627
:401400000138FDD1C046C046C0467047EFF3108072B6704780F310887047C04610B5C54B1B68002B00D09847C34B1B68DB0702D50022C24B1A60C24B1B789B0622D4C14B5B
:401440001A680223FF331A421CD0BD4B1B78DB070AD5BD4A137802218B431370117809230B43DBB213700AE0B74A137820218B431370117870235B420B43DBB21370002295
:40148000AF4B1A70AE4B1B789B0600D5BDE1AC4B1B78DB0600D491E1AA4B1B689B0740D50222AA4B1A60AA490B680D321A40096880231B020B4000D001239B18A54A1278FA
:4014C000D2B2934206D2A04A117804230B43DBB2137006E09F4A12789B1A9F490A68D31A0B609D4B1A689D4B1A6000239C4A1360984A13709B4B1A68802149020A431A603B
:401500001968994A0A401A608F4A137802218B431370117801230B43DBB213701022884B1A70884B1B681B0739D50822874B1A608E4B1B689B040CD414E08D4B1A688D4916
:4015400009688A188C490968C9B211701A6801321A608A4B1B681B07EFD1844A1168884B0B401360874B1B689B0605D5764A117840230B43DBB213700022834B1A60834AC4
:40158000804B1A60704A137820218B431370117810230B43DBB21370694B10221A70694B1B685B0643D50122794B1A60794B1B68DB0610D50F326A4B1A60684B1A68664B11
:4015C0001A60614A117802230B43DBB2137012225B4B1A7025E0704B1B68654A12689B1A072B03D80422684B1A6011E0082B06D15E4A1368A02109020B43136008E05B4A9D
:401600001368802189010B43136008225E4B1A604D4A117820230B43DBB213701122484B1A705E4A494B1A6001225D4B1A605D4B1B681B072AD5584B1B684D4A1068181A37
:401640000838082802D9002408200EE001240CE0474B1A68474909688A1847490968C9B211701A6801321A6001380028F0D1002C08D03E4A1368802109020B431360002239
:40168000414B1A6008223F4B1A6024E0454B1B685B0720D5384B1B68354A11683E4A126891420DD201213E4A1160314A1168314800684118DBB20B7013680133136007E07C
:4016C000FFF79CF8204A117840230B43DBB2137004222C4B1A60344B1B68DB0620D494E01D4B1A68314B1B689A420CD21A4B1A682F4909688A181278D2B22E490A601A68C4
:4017000001321A600CE0FF222A4B1A60114B1B78DBB20A2B04D80F4A13780133DBB213700B4B1B680F221340082BD9D10132224B1A606AE0BC0100208C0E0740880E074012
:40174000500200204C0F07405C020020400F074008020740740200205802002054020020880F074004020740FFFFFEFF60000740600200206C0200204003074008030740B1
:40178000FF5FFFFFC00F0740C80F0740ED0F0000800E07406400074068020020FF0F00006C000740CC0F07408C0F0740640200207002002040020740800F0740134A13687F
:4017C0005B005B0813601021114B1970114B1868114901401960186810490140196000230F490B600F490B600F49104B19601049104B19601049114B19601149114B1960C0
:401800001368802109060B43136010BD000007405002002060000740FF5FFFFFFFFCFFFFC80F0740880F0740ED0F0000800F0740F3070000C00F0740FF0F0000400F0740B8
:4018400017030000000F0740F0B546464F46C0B48DB004000D0000F0B9F8284B060098461B780F005BB2013332D022002B002000290003F00FF98146002829D120002900D0
:4018800000F090FB00221E4B00F038FD00281FD0012302931B4B1C4803934B46069407950A930494059500F083FB43461B78089009915BB2022B12D002A800F077FB00282B
:4018C0000DD00A9B0193002B11D10898099901E0300039000DB00CBC90469946F0BD03F0F7F9212303600A9B0193002BEDD003F0EFF90A9B01930360E7E7C046EC00002050
:401900000000F03F28710000946F0000F0B546464F46C0B48DB004000D0000F04DFA294B009001911B785BB29846013312D022002B002000290003F0ADF88146002809D1FC
:401940000026002732003B002000290000F0C2FC002806D1009801990DB00CBC90469946F0BD01230293184B0694079503934B460A93434604940595002B15D03B00320050
:401980003000390001F094FE434608900991022B0CD103F09DF9212303600A9B0093002B0AD108980999D7E70896099702A800F0FDFA0028F1D1ECE703F08AF90A9B0093CE
:4019C0000360EEE7EC00002030710000F0B5DB4A4B0085B007000E005B0893420CDDD84A94466344034300D0ACE0002900DC25E10020002105B0F0BDD24A934200DC9BE047
:401A0000002900DA1DE102000B000020CE4902F0EDFC0022CD4B02F06FFA04000D0000F0CBF9CB4A0F0000900191CA4B2000290002F062FAC84AC94B01F00EFB22002B00CD
:401A400002F05AFAC64AC74B02F0D0FC22002B0002F052FAC44AC54B01F0FEFA22002B0002F04AFAC24AC34B02F0C0FC22002B0002F042FAC04AC14B01F0EEFA22002B00AC
:401A800002F03AFABE4A02900391BE4B2000290002F032FABC4ABD4B02F0A8FC22002B0002F02AFABA4ABB4B01F0D6FA22002B0002F022FAB84AB94B02F098FC22002B005C
:401AC00002F01AFA0022A04B01F0C6FA02000B000298039901F0ECFD009A019B02F00CFA00260290039132003B003000390002F003FA02000B002000290002F077FC3200D9
:401B000004000D00009801993B0001F0A5FA02000B002000290001F0CBFD02000B000298039901F099FA32003B0001F095FA02000B0001F091FA5DE7994A93420BDC994887
:401B4000994957E702000B0002F050FC02000B0001F0AEFD4EE702000B0002F0CDF904000D007B4A7B4B02F0C7F97B4A7B4B01F073FA22002B0002F0BFF9794A794B02F0B0
:401B800035FC22002B0002F0B7F9774A774B01F063FA22002B0002F0AFF9754A754B02F025FC22002B0002F0A7F9734A734B01F053FA22002B0002F09FF9714A009001916F
:401BC000704B2000290002F097F96F4A6F4B02F00DFC22002B0002F08FF96D4A6D4B01F03BFA22002B0002F087F96B4A6B4B02F0FDFB22002B0002F07FF90022524B01F01A
:401C00002BFA02000B000098019901F051FD3A00330002F071F902000B006448644902F0E5FB02000B003800310002F0DFFB02000B005C485C4902F0D9FBDBE659485D499A
:401C4000D8E60022404B01F007FA00223F4B02F053F904000D003E4A3E4B02F04DF93E4A3E4B01F0F9F922002B0002F045F93C4A3C4B02F0BBFB22002B0002F03DF93A4AA4
:401C80003A4B01F0E9F922002B0002F035F9384A384B02F0ABFB22002B0002F02DF9364A364B01F0D9F922002B0002F025F9009001912000290000F07FF8314A06000F00DA
:401CC000304B2000290002F017F92F4A2F4B02F08DFB22002B0002F00FF92D4A2D4B01F0BBF922002B0002F007F92B4A2B4B02F07DFB22002B0002F0FFF80022124B01F09C
:401D0000ABF902000B000098019901F0D1FC32003B0002F0F1F8254A254B02F067FB32003B0001F099F902000B0001F095F902000B001C481F4902F059FB5BE6FFFFEF3F7F
:401D4000000010C0FFFFDF3F0000F03F0000E03F09F7FD0DE13D023F88B20175E0EF493F3B8F68B52882A43F5544880E55C1C93F7D6FEB0312D6D43F555555555555C53F21
:401D800082922EB1C5B8B33F59018D1B6C06E63FC88A599CE52A00404B2D8A1C273A03400000603C182D4454FB21F93F075C143326A6913CFB210940F0B556464D464446FD
:401DC0005F46754BF0B40A000D00190083B0060004002940994200D1BAE0002D00DC94E02D1500D1A3E06D4B12039C468023120B5B0365441A43EB0700D581E06B10984657
:401E0000E30F9B189B18802216210026002764009203B818984202DC87181B1AB618E00F5B0001391B18640052080029F1D1002201929446802212062020914609E09F4277
:401E400041D0E10FC9180138CB186400520800281ED0614651189F42F1DA8D18AC46CD0FED07BA464D4539D0DB1B8C42BF417F42DB1B641A019901388B469344594601912D
:401E8000E10FC9185746CB18640052080028E0D123432BD1019B5B08414972108C466244F10702D5802109060B43414609058D181E002F003000390003B03CBC9046994638
:401EC000A246AB46F0BDA1420ED88D18AC46CD0FED074D4548D09A460023CAE76546002DC2DB7D1CAA46BFE73B00AAE7019B01333ED0019A01239446134063445B08CBE7D8
:401F0000E30F52009A18640078E76B005B0803432F00002BCED00025002A31D1E20A153D6405002AFAD080235B031A4223D180200023400300E00B005200591C0242FAD0D9
:401F40002020401AED1A2300C3408C401A434AE702002B00290001F0CFFF32002B0001F07BF806000F00A5E76546002DB9DAB2E70136002390E7012320205B420021E1E70A
:401F80003B000200390002F031FA02000B0001F08FFB06000F008DE70000F07F01FCFFFF0000E03F49004B081900704700207047002001497047C0460000F87F00224308A6
:401FC0008B4274D303098B425FD3030A8B4244D3030B8B4228D3030C8B420DD3FF22090212BA030C8B4202D31212090265D0030B8B4219D300E0090AC30B8B4201D3CB033B
:40200000C01A5241830B8B4201D38B03C01A5241430B8B4201D34B03C01A5241030B8B4201D30B03C01A5241C30A8B4201D3CB02C01A5241830A8B4201D38B02C01A524165
:40204000430A8B4201D34B02C01A5241030A8B4201D30B02C01A5241CDD2C3098B4201D3CB01C01A524183098B4201D38B01C01A524143098B4201D34B01C01A5241030973
:402080008B4201D30B01C01A5241C3088B4201D3CB00C01A524183088B4201D38B00C01A524143088B4201D34B00C01A5241411A00D20146524110467047FFE701B50020CA
:4020C00000F0F0F802BDC0460029F7D076E7704703460B437FD4002243088B4274D303098B425FD3030A8B4244D3030B8B4228D3030C8B420DD3FF22090212BA030C8B4272
:4021000002D31212090265D0030B8B4219D300E0090AC30B8B4201D3CB03C01A5241830B8B4201D38B03C01A5241430B8B4201D34B03C01A5241030B8B4201D30B03C01A97
:402140005241C30A8B4201D3CB02C01A5241830A8B4201D38B02C01A5241430A8B4201D34B02C01A5241030A8B4201D30B02C01A5241CDD2C3098B4201D3CB01C01A5241E7
:4021800083098B4201D38B01C01A524143098B4201D34B01C01A524103098B4201D30B01C01A5241C3088B4201D3CB00C01A524183088B4201D38B00C01A524143088B424D
:4021C00001D34B00C01A5241411A00D201465241104670475DE0CA0F00D04942031000D34042534000229C4603098B422DD3030A8B4212D3FC22890112BA030A8B420CD30A
:40220000890192118B4208D3890192118B4204D389013AD0921100E08909C3098B4201D3CB01C01A524183098B4201D38B01C01A524143098B4201D34B01C01A52410309D1
:402240008B4201D30B01C01A5241C3088B4201D3CB00C01A524183088B4201D38B00C01A5241D9D243088B4201D34B00C01A5241411A00D20146634652415B10104601D3E8
:402280004042002B00D54942704763465B1000D3404201B5002000F005F802BD0029F8D016E770477047C0468446101C62468C46191C634600E0C0461FB501F0B3FD00283C
:4022C00001D40021C8421FBD10B501F007FD4042013010BD10B501F0A5FD002801DB002010BD012010BDC04610B501F09BFD002801DD002010BD012010BDC04610B501F0A0
:402300002DFD002801DC002010BD012010BDC04610B501F023FD002801DA002010BD012010BDC0468446081C6146FFE71FB500F02FFB002801D40021C8421FBD10B500F0B1
:40234000BBFA4042013010BD10B500F021FB002801DB002010BD012010BDC04610B500F017FB002801DD002010BD012010BDC04610B500F0C9FA002801DC002010BD012039
:4023800010BDC04610B500F0BFFA002801DA002010BD012010BDC046F8B54A02430244004E00C50F240E28009B09360EC90F92098D4259D0A01B002800DC8DE0002E1AD162
:4023C000002A00D079E05A0704D00F221A40042A00D004335A0138D50134FF2C00D189E028009B015B0AE4B25B02E4055B0A2343C0071843F8BDFF2CE5D08021C9040A4351
:402400001B2800DD89E016002021C640081A8240511E8A4132439B1A5A0114D59B019E09300002F037FC05388640844265DC041B330020200134E340041BA640721E964132
:4024400000243343BFE75A07BFD1DF082800FF2C2FD1002F00D187E08022D20313003B435B025B0AFF24BFE7A11B002949DD002E29D0FF2CA7D08026F60432431B2900DDED
:402480008DE017002026CF40711A8A40511E8A413A439B185A01D6D50134FF2C64D0012276491A405B080B4013438CE7031ECAD100207B025B0AE4B296E701380028AAD08B
:4024C000FF2C9DD17FE7002A00D17CE701390029DFD0FF2CD2D176E7002820D1601CC0B2012853DD80279E1AFF0437402FD0D61A0D0095E72800002376E7614B241A33408C
:4025000061E700294DD1611CCEB2012E2FDDFF292AD09B185B080C0055E701227BE7002C1BD1002B5BD0C04300280CD0FF2E7ED01B2800DD92E01D002024C540201A8340EA
:40254000581E83412B43D31A34000D0064E7002E00D065E700200024ABE7FF2E67D08024E40440422343E3E7FF2400233CE7002C61D1002B7ED0002A00D124E79B185A0124
:4025800000D460E73E4A0C0013401CE7002C1ED1002B2FD1002A66D013000D0013E7012277E7002C1FD1002B5AD0C94300290BD0FF2E50D01B295FDC1F002024CF40611A9B
:4025C0008B40591E8B413B439B18340062E7002B1CD1002A4AD013000D00FF24F3E6130034000D00EFE6FF2E35D08024E40449422343DFE7002A00D1E5E68027981AFF04E7
:40260000074000D152E7D31A0D00DCE6FF24002A00D1D8E68020DB08C003034204D0D208024201D113000D00DB00FF24CBE61300FF240D00C7E6002B0DD0FF24002A00D17D
:40264000C1E68021DB08C9030B42EDD0D2080A42EAD11300E8E71300FF24B4E6012372E713003400AFE60027002022E780270020FF03F1E61300A6E60123A5E7FFFFFF7DB4
:40268000FFFFFFFBF0B5564644465F464D46F0B444024600C70F83B08846650A360EBA463DD0FF2E22D00023EC00802599469B46ED0425437F3E43465C025800DB0F640A18
:4026C000000E984636D0FF2830D080230021E400DB041C437F38301A0190484642460843724E800030587A4013008746002D44D108239946063B9B46DDE70122FF200024EE
:402700001A406402C305640AD2071C431443200003B03CBC90469946A246AB46F0BD002D20D104239946033B9B46C4E7002C17D1022102E0002C0AD10121321A01924A466F
:4027400043460A435A48920082587B409746200002F0A0FA431F76309C4040420021BAE70321B8E7280002F095FA431F9D4000237630464299469B469DE70C239946093B77
:402780009B4698E780240022E403FF20B9E70024C2468B465A465346022AAED0032A7DD0012A31D1012200201A400024A9E70122101A1B2856DD1A4000200024A1E78023E9
:4027C000DB031D424BD18023DB032B435C02640A3A00FF2095E76D016001854230D2019A0024013A01921B220127290064006D00002901DBA84201D82D1A3C43013A002A79
:40280000F3D16A1E95412C4301987F300028CEDD620704D00F222240042A00D00434220103D5244A019814408030FE2800DD64E70122A401640AC0B21A4062E72C00A9E78B
:402840002D1A1A220124CFE76B02BCD500248023DB031C436402640A4246FF2051E71C42B3D1F4E721002022C140101A8440621E94410C43620704D00F222240042A00D0C4
:402880000434620104D5012201201A40002438E70122A401640A1A40002032E78023DB031C436402640A5246FF202AE73871000078710000FFFFFFF7430270B542004C0000
:4028C0005D0AC30F4802120E460A240EC90FFF2A0FD0FF2C11D00120A24200D070BDB542FCD18B420DD0002AF8D12800431E9841F4E70120002DF1D1EBE70120002EEDD138
:40290000E9E70020EAE7C0464302F0B542005D0AC30F4802440A4800120E000EC90FFF2A1FD0FF2822D0002A09D16E426E4100280FD1002C0DD10020002D09D005E00028AC
:4029400001D1002C01D08B4213D0584201231843F0BD002EF7D048424141012049420843F6E7002DDDD002204042F1E7002CDAD0F9E78242E9DC04DBA542E6D80020A5421D
:40298000E6D25842434101205B421843E0E7C0464302F0B542004C005E0AC30F4802120E450A240EC90FFF2A17D0FF2C19D0002A0BD170427041002C17D0002807D04842BD
:4029C0004141012049420843F0BD002C13D08B4214D0584201231843F6E70220002EF3D1E3E70220002DEFD1E1E7002DE5D10020002EE9D0EDE7002DE9D1EAE7A242E8DC28
:402A000004DBAE42E5D80020AE42DDD25842434101205B421843D7E7F0B557464E4645464300E0B446028846760A1F0EC40F002F47D0FF2F25D0002380259A469946F600A2
:402A4000ED042E437F3F434642465D02D20F5B006D0A1B0E904640D0FF2B39D080220020ED00D20415437F3BFB1842465746591C62408C4607430F2F5CD86F49BF00C959C4
:402A80008F46002E45D108239A46063B9946DAE7424602282DD0032800D1C3E0012800D0A2E0002500260240D4B27602ED05760A2E43E407264330001CBC90469946A246E1
:402AC000F0BD002E1AD104239A46033B9946BAE72A00511E8A41901CC6E70120002DC3D0280002F0D7F8431F76309D4043420020BAE70124FF2514400026D6E7300002F0F7
:402B0000C9F8431F9E400023763047429A46994699E70C239A46093B994694E780260024F603FF25C1E735004846B2E7350022004846AEE72904090C0800370C3604360CE8
:402B40002C0C7943704367437443060C64183619B14203D980214902884647440004000C310409188D01681E8541890E2943350CED19AD010D43290104D5012369081D40DF
:402B800063460D4319007F31002925DD680704D00F202840042800D00435280103D5274980330D401900FE29A3DC0124AD016E0A1440CDB279E78020C003064207D00542A2
:402BC00005D128434602760A4446FF256DE706437602760AFF2568E70124611A1B2905DD14400025002660E76346CBE72E002023CE40591A8D406B1E9D412E43730704D02A
:402C00000F233340042B00D00436730104D5012401251440002648E70124B601760A1440002542E780260124F6032E437602760A1440FF2539E7C046B8710000FFFFFFF78F
:402C4000F8B54A024E0043024400240EC50F9B09360EC90F9209FF2E00D183E001204140A01BA9425CD0002800DC95E0002E1CD1002A00D081E05A0704D00F221A40042A71
:402C800000D004335A013BD50134FF2C00D191E001209B015B0AE4B205405B02E4055B0AED0723432B431800F8BDFF2CE3D08021C9040A431B2800DD90E016002021C6403D
:402CC000081A8240511E8A4132439B1A5A0115D59B019E09300001F0DDFF0538864084426CDC041B330020200134E340041BA640721E964100243343BDE70D005A07BCD167
:402D0000DF0801231D40FF2C33D1002F00D190E08022D20313003B435B025B0AFF24BCE700284FDD002E2ED0FF2CA4D08025ED042A431B2800DD97E016002025C640281AA0
:402D40008240501E824132439B185A01D5D50134FF2C6DD001227B481A405B08034013430D0088E7002A00D07AE777E7031EC5D100257B025B0AE4B28FE701380028A4D086
:402D8000FF2C97D177E7002A00D174E701380028DAD0FF2CCDD16EE7002821D1601CC0B2012858DD80279E1AFF0437402FD0D61A0D008FE701231D4000236EE7624B241A0E
:402DC000334058E7002851D1601CC6B2012E33DDFF282DD09B185B0804004CE7012274E7002C1AD0FF2E1FD08024E404404223431B2800DD96E01D002024C540201A834016
:402E0000581E83412B43D31A34000D005EE7002E00D05FE700250024ABE7002B44D0C0430028F0D0FF2EE3D11300FF240D0022E70D00FF24002330E7002C5DD1002B7DD0C5
:402E4000002A00D117E79B185A0100D456E73E4A040013400FE7002C1ED1002B2FD1002A65D013000D0006E701226DE7002C1FD1002B59D0C04300280BD0FF2E4FD01B2837
:402E80005EDC1D002024C540201A8340581E83412B439B18340058E7002B1CD1002A49D013000D00FF24E6E6130034000D00E2E6FF2E34D08024E40440422343DFE7002A8C
:402EC00000D1D8E68027981AFF04074000D14DE7D31A0D00CFE6FF24002A00D1CBE68020DB08C003034204D0D208024201D113000D00DB00FF24BEE6002B10D0FF24002AB4
:402F000000D1B8E68020DB08C003034203D0D208024200D11300DB000D00FF24ABE61300FF24A8E601236EE713003400A3E6002700251EE780270025FF03E9E613009AE698
:402F40000123A6E7FFFFFF7DFFFFFFFB70B5002830D0C317C5185D40C40F280001F09AFE9E231B1A962B0DDC9622D21A95406A02520AD8B25202C005520AE4070243224394
:402F8000100070BD992B19DC9922D21A9540124A2A40690704D00F210D40042D00D00432510103D50C4B1A409F231B1A9201520AD8B2DFE7002400200022DBE705222E0053
:402FC000121AB921D6402A00C91A8A40551EAA4135001543DBE7C046FFFFFFFB70B5041E28D001F057FE9E231B1A962B0ADC9622D21A94406202520AD8B25202520AC005DA
:40300000104370BD992B18DC9922D21A9440114A2240610704D00F210C40042C00D00432510103D50B4B1A409F231B1A9201520AD8B2E2E700200022DFE705222500121A9F
:40304000B921D5402200C91A8A40541EA2412C001443DCE7FFFFFFFBF8B556465F464D464446F0B40F00FD0FAA4609037C002E005F00450F490A7F0D2943C5001803BC46AF
:40308000400A570F640DDB0F3843D2009A4500D1AAE06646A61B002E00DCFFE06346002B39D10300134300D0D9E06B0709D00F232B40042B05D02B1DAB42AD416D42491948
:4030C0001D000B0200D482E0CA4B01349C4200D1FEE00A005646C84BED081A405007640552020543120B640D002112030B0D1B056405120B1A436308C04CF60714401C432F
:40310000640064083443280021003CBC90469946A246AB46F8BDB74B9C42C6D080231B041843382E00DDEBE01F2E00DD1EE120239B1B9C4603006746BB40984613004746F6
:40314000F3403B436746BA40571EBA4113430200F240EB1A9D42B6411D008A1A7642911B0B0231D54A02560A002E00D1B4E0300001F090FD0300083B1F2B00DDB5E02022B9
:403180002900D21AD1409E400A009D4032439C4200DDB1E01C1B631C1F2B00DDD5E0202114002800C91A8C40D8408D400443DA40681E854111002543002476E7414631431E
:4031C00000D134E2310045466B0700D06FE756464807ED08C9080543864B9C4235D00A036405120B640D7FE76346E31A9B46002B00DC8BE06746002F3CD07E4FBC4200D100
:4032000053E780273F0438435B46382B00DCF7E00243501E82410020D2B253194218AB4289411D00494289180B02CDD5714B01349C4200D13DE101206F4A6B080A402840EC
:403240001843D507054351082FE72B000B4300D1CBE180231B030B431A03120B44E7013E002E6DD1AE1AB5429B41091A5B42C91A350075E70700174300D116E701235B428C
:403280009C46E3445B46002B00D0E0E0AA18AA429B4109185B4259181500C5E7002E75D1661C7605760D012E00DCF3E0AE1AB0464545BF410E1A7F42F61B370200D48FE09F
:4032C000551BAA42B641411A76428E1B9A464BE756460022002507E7280001F0DBFC20300300083B1F2B00DC49E72A002838824000259C4200DC4DE73F49E41A1140D4E610
:403300000243501E8241D3B2002222E7002B00D0F3E0631C9C465B055B0D012B00DC9FE0344B9C4500D1C3E0AA180918AA42804140424118CD075208154349086446B4E68F
:403340002C4B9C4200D0ECE6AFE611001F3CE1400C00202B00D17FE04021CB1A9A4015436A1E95410021254300242DE733000700203BDF403B00202E70D04027BE1BB04069
:403380000243501E824113430022E2E6002C4FD0184CA44500D1ABE08024240476422143382E00DDDFE01F2E00DD43E12027BC1BA1460C004F46BC40A0462C004746F440B6
:4033C0003C434F46BD406F1EBD41F1402C43151BAA429241411A5242891A64469A46BFE641464546314300D0BEE6002600240025F2E6C046FF070000FFFF7FFFFFFF0F808B
:403400001F2B59DC2027FF1ABC46070063469F405B46B9461700DF40B8464F4643461F4363469A40531E9A415B463A43D840F4E60C002C435CD0F643002E55D1551BAA4259
:40344000A441411A6442091B9A46644688E6964FBC4200D0D8E628E6002280E700208FE70B002B43002C00D0C2E0002B00D101E10300134300D118E6AB18AB42B6410918C7
:40348000764271180A0200D409E1884A1D00114064460AE6002C5BD10E002E4300D08AE00100114300D1C2E0010015009A46FCE56446002100258FE620235B429C46DC4430
:4034C00063460700DF405B46BC46202B00D1ACE040235F46DB1B98400243501E8241634613431A00002098E66F4CA44500D057E70100150064469A46D7E5002C39D10C005F
:403500002C436ED0DB43002B1AD0674CA44568D0382B00DDA4E01F2B00DDAEE020240F00E41AA740B9462F00DF40B846A3464F46444627435C46A5406C1EA541D9403D43D9
:40354000AD1895429B4109185B42591864466BE60C002C4315D1010011437BD0010015009A46514CA1E50D43691E8D410021ECB22DE74D4CA44534D0802424045B422143C4
:40358000C6E7040014434ED0ED084C072C438025C9082D03294208D0C6082E4205D1D208410711430C009A463100620FC900E50011433D4C79E50600164300D175E5AE1AF2
:4035C000B0464545BF410E1A7F42F61B370200D4F4E5551BAA42B641411A7642891B9A4663E50100150064465FE5002200257BE5002B3BD00300134315D0ED084B072B4365
:403600008025C9082D03294207D0C4082C4204D141070B002100D2081343C9005A0F1143DD00214C41E5204C3FE5002054E700260025D1E534000F00203CE7403C00202EBD
:403640002BD04027BE1BB1400D43691E8D4100212C43BCE6802100260903134C0025BBE50D43691E8D410021EDB269E7010015000D4C1AE50100150017E51C000F00203C94
:40368000E7403C00202B0CD04027FB1A99400D43691E8D410021254352E70021D4E71D0092E50021F3E7C046FF070000FFFF7FFFF0B556464D4644465F46F0B41D000E03FC
:4036C0004C00CB0F87B0070092468146360B640D98466AD06D4B9C4235D08022430F12041343F6001E43C3009946694B00279C460023644402932B0368001B0BED0F51469D
:403700009B46400D009500D178E0604B98426CD05B46DA004B0F802109040B4313439B465346D9005A4B9C46002360444246201A6A40924601901F430F2F00D9B0E0554899
:40374000BF00C0598746374300D088E0002399460233082700260293CDE74346B34649460093029B009A9246022B00D0BFE1002153460122002689461A40444B00213603B8
:403780000C0D2405360B2643434C1B0526401E437600D207760816434846310007B03CBC90469946A246AB46F0BD330003434FD0002E00D1BCE1300001F06CFA03000B3BD4
:4037C0001C2B00DDADE11D220100D31A08393A008F408E40DA40B9461643304B00279C46002360444442029385E753465A4613432CD1002300219B46023397E70B4320D0EC
:403800005B46002B00D19EE1584601F043FA03000B3B1C2B00DD8FE102005946083A91408B461D21CB1A5146D9400B0059460B4351469B469140194B9C466044404200239B
:4038400074E7002300219B4601336FE703236DE70023994601330427002602934BE703230C27029347E70122D51A382D00DCB0E153461A4000210023002689467EE70023C2
:403880008026994600223603004B77E7FF07000001FCFFFFF8710000FFFF0F80F30300005E4500D972E100D16DE1019B4D46013B01930023340002935B461E020B0E1E437E
:4038C0000B020393330C994633041B0C494620000093FEF773FB009B370043430600494620009846FEF7F0FB2C0C09040C43A04509D9E419731EA74200D95CE1A04500D894
:4039000059E1023EE4194346E41A49462000FEF755FB0300009A80465343494620009B46FEF7D2FB2A040904120C0A4393450DD94346D219013B974200D93AE1934500D8B9
:4039400037E102235B429C46D219E0445B46D21A4346360433439B460399180C0B0C1D00059309045B46090C0C001B041B0C4443049159436B4368431B190D0CEB189C42F5
:4039800003D980246402A44660441C0C09041B04090C20185D18824200D2DEE000D1D7E0161A029B9C465D1BAC459B415B42F61AB74200D106E149463000FEF7FFFA009B07
:4039C00004004343494630009846FEF77DFB2E0C09040E43B04509D9F619631EB74200D9F3E0B04500D8F0E0023CF6194346F31A494618000293FEF7E1FA009B06004343DC
:403A0000494602989846FEF75FFB2D0409042D0C0D43A84509D9ED19731EAF4200D9D6E0A84500D8D3E0023EED192404210043463143049E059A3000ED1A0B040C0C1B0CB9
:403A400058436643534354439A19030C9B189E4203D980225202944664441A0C00041B04000C14191B18A54250D34DD001231943964A019B94466344002B00DCF3E64A07A2
:403A800009D00F220A40042A05D00A1D8A42894149428B4411005A46D20108D55A468C4B1A4093468022D2009446019B6344894A934200DD5BE65A46C908500708435602CB
:403AC000514601225B058146360B5B0D0A4055E680231B031E4211D05A461A420ED15E461E433603360B2A0089467B4B46E6032B00D1E1E0012BBBD11A40BBE61E43360363
:403B0000360B4246744B39E6002BB1D07D194A1EAF4252D91100A542A8D1039A9A42A5D1A6E703003E00283B9E400023994654E601F0B0F8203041E603005246283B9A4085
:403B40000021934677E6504601F0A4F820305EE6029B0026AB4200D323E7039E0299B44661448846B045B6415B467642F619B218013B0291974213D290424FD800D18EE01E
:403B8000161A9B460DE7894500D28EE674084B46F60735005B081D434B46DB0702938BE69742EDD10399029CA142E5D93E1A9B46F7E69846CAE61E00A5E6AC423ED874D06A
:403BC000110053E70121494252E71C000EE71E002BE71F2D3CDC20230A0058465B1B9840EA4099400243481E81415E461143EE404B0709D00F230B40042B05D00B00191D33
:403C000099429B415B42F61833023CD55346012200211A40002601238946AFE502235B429C46039CE344A446029B63449846A045B6417642F6190293B218B1E603988A1EA6
:403C400041008142B6417642F619AD19039161E71F225242D31A5A46DA401300202D29D040225846551BA8400143481E814107200B4318400026002809D00F2200261A40A2
:403C80001900042ABBD10B0070077602360BDB0803439946012253461A4000236EE502998D42BBD89B4600267BE603989842C5D3110032E70020D7E780265B4636031E4307
:403CC0003603360B009A8946034B57E5FF030000FFFFFFFEFE070000FF070000F0B55F4656464D464446F0B41F035C00DB0F9A46194B0E034D00C90F8046360B6D0D8B4674
:403D000091463F0B640D9D4219D0134B9C421BD00123A54206D018003CBC90469946A246AB46F0BDBE42F6D1C845F4D1D34510D0002DF0D1304303005A1E9341EBE7310092
:403D400001230143E7D1E0E73A430123002AE2D1DEE70023DFE7C046FF070000F0B55F46444656464D46F0B41F033C0B2C4F0E034D00A3465C008446360B6D0DC90F9046C3
:403D8000640DDB0FBD422BD0254FBC422ED0002D0ED130430700814678427841002C17D15F463A4314D14B460020002B0AD006E0002C02D15846024301D099421AD001232B
:403DC000484218433CBC90469946A246AB46F0BD0028F2D058425841012240421043F1E737000743D0D002204042EBE75F461743CDD0F8E7A542E2DC05DB5E45DFD808D0F5
:403E000000205E45DED248424841012340421843D8E7C445D3D80020C445F4D3D2E7C046FF070000F0B55F464D4644465646F0B41C03240BA4462F4C0F034D005E00C90FE4
:403E400080463F0B6D0D8B469146760DDB0FA54220D0284CA64222D0002D12D1384344424441002E20D0002C0DD05C42634101245B421C4320003CBC90469946A246AB46B8
:403E8000F0BD002E17D05B4519D05B465C4201231C43EFE7390002240143EBD1D9E7614602241143E6D1D7E761460A43DBD100240028DFD0E9E761460A43E4D1E5E7B54293
:403EC00003DD01225C421443D4E7B542CDDB6745DBD809D000246745CCD259464C426141012449420C43C5E7C845CED80024C845F3D3BFE7FF070000F0B55F4656464D4681
:403F00004446F0B40D0399464E002B0B87B00700924680469B46760DCC0F002E69D06D4B9E4235D05B468022DD001204430F13432B439B46C3009846674B00279C46002315
:403F4000664401934A4615035000D20F53462D0B400D914600D176E05E4A90426CD080225B0F120413435C4AED0094461D4353460022DB00604449463618701C614002903D
:403F800017430F2F00D9AFE05448BF00C759BF465B461F4300D088E000239B469846023308270193CEE74946022A6AD0032A00D109E2012A00D0BBE1114000220023002587
:403FC0009046CCB200212D030A0D12052D0B1543434A1B0515401D436D00E4076D0825434046290007B03CBC90469946A246AB46F0BD034352D05B46002B00D18AE1584620
:4040000000F048FE03000B3B1C2B00DD7BE11D22D31A3A0001005D46DA4008398D4013008F402B439B46B8462E4B00279C46002360444642019385E752462A432CD1002528
:404040000023022297E752462A4321D0002D00D154E1280000F01EFE03000B3B1C2B00DD46E11D21CB1A51460200D9405346083A954093400D431B4A94466044404200225B
:4040800079E7012400220C40124B0025904699E70025002301226EE703226CE700239B4698460133042701934CE703230C27019348E700238025984600242D03054B81E727
:4040C0005D464346019A6FE75D4643462100019A6AE7C046FF07000001FCFFFF38720000FFFF0F80F30300004246120C91461A0C9446424617044A461B041B0C5A436046FD
:4041000090464A4642431000039262461C003F0C7A437C4342440192220C9246019A5244904506D98246802040028046C24450460390100C049048462404240C12041219EA
:4041400005922A0C2D042D0C68432C00824648467C4350438146200C8046574357444744BA4503D9802040028046C144380C3F04B84648442404240C01900498A04440448A
:4041800004905846000C814658460404200C8246070048465F434C464343604660436446834650464443380C8446E4186444A34203D980235B029C46E34448463F04230CBC
:4041C0003F0C2404E419574668436F4384464D46504655434243380C814662444A445B44944503D9802040028446654403983F04834604983F0C8446E344C3458041404293
:404200008246100484460198674484466744A344BC46A345A4419946D44464428742BF41D4458041E144A04699459B417F424042C8440743120CBA18A045A4415F423B0035
:4042400064422343D71843467D19DB0D6D021D435B465A02059B1A43531E9A415B46DB0D1A4343465B021343EA0107D501225C0813402343EA07029E13436D08574AB21837
:40428000002A4BDD580709D00F201840042805D0181D98429B415B42ED180300E80104D54F4A15408022D200B2184E48824200DDE7E60124DB08680718436D02530580460B
:4042C0002D0B5B0D0C407DE6802259461203114208D0154206D115432D0398462D0B4C46414B6FE65D4615432D032D0B3E4B69E603005546283B9D400023BCE6504600F04B
:40430000C9FC2030A8E60300283B9F400023BB46984689E600F0BEFC203073E60124A61A382E07DD00220C4000230025904649E6029EA3E71F2E20DC20222C001800921B41
:40434000F040944093400443581E83411C43F540630709D00F232340042B05D023001C1D9C4292415242AD182B021FD5012400220C4001230025904624E61F202C00404245
:40438000821AD440202E1CD04022961BB5402B43581E83410720234318400025002809D00F2200251A401C00042AD8D1230068076D022D0B0124DB08034398460C400023E1
:4043C00000E60025E3E780220124120315432D0398462D0B0C40044BF4E5C046FF030000FFFFFFFEFE070000FF070000F0B557464E464546E0B40E001100F20F9246C5003A
:40440000420F180337037400400A4E0F7F0A3043CF4E17435A00640D520DDB0FC900B24200D1E5E001267340A61AB446534500D1AFE0002E00DC0DE1002A3AD103000B43D7
:4044400000D0E4E06B0709D00F232B40042B05D02B1DAB42AD416D427F191D003B0200D488E0BB4B01349C4200D110E13A00B94B51461A4001235007ED085202640505433D
:40448000120B640D0B400021280012030D0D120B64052D0515436208AF4CDB072C401443640064081C4321001CBC90469946A246F0BDA74B9C42C5D080231B0418436346F4
:4044C000382B00DDFDE01F2B00DD30E1624620239B1A02009A40664690460A009940F24046464B1E99413243114363460200DA40691A8D429B410D00BA1A5B42D71A3B021D
:4045000035D57A02530A98464346002B00D1C4E0404600F0BFFB0300083B1F2B00DDC5E020222900D21A4746D1409F400A009D403A439C4200DDC0E01C1B631C1F2B00DDDF
:40454000E4E0202114002800C91AD8408C408D400443DA40681E854117002543002471E7424663461A4300D14CE2674645466B0700D069E7012351467807ED08FA080B40EB
:40458000054373498C4238D012036405120B640D79E7002E00DC9AE0002A47D06C4A944200D14FE78022120410436246382A00DC08E10143481E81410022C9B24919D2192D
:4045C000A942BF410D007F42BF183A0200D442E15F4A0134944200D14EE101205D4A69083A4028400843D507054357089A4629E706000E4300D017E714E72900114300D1FD
:40460000F9E1802109030A431203120B3BE701235B429846C4446346002B72D1691A8D429B413F1A5B42FF1A0D0068E702000A4300D107E7012252429046C4446246002A86
:4046400000D0E6E06918A942B6413F187642F7190D00BAE7002E00D080E0621C5205520D012A00DCF9E06A1A91464D45B6413A1A7642921B9046120200D499E04D1BA942DB
:404680008941C71B49427A1A90469A463CE752460123002513400022F5E6280000F0FAFA20300300083B1F2B00DC39E72A002838824000259C4200DC3EE7264FE41A174023
:4046C000C0E60143481E81410022C9B210E7002E00D0F1E0621C94465205520D012A00DCA0E01B4A944500D1C5E06918A94292413F185242D2194908D5070D435708644661
:40470000A0E6134B9C4200D0D9E69BE611001F3CE1400C00202B00D180E04021CB1A9A4015436A1E95410027254300241FE763460200203BDA406346202B71D0402366469F
:404740009B1B98400143481E814111430022CFE6FF070000FFFF7FFFFFFF0F80002C48D0CA4CA24200D1A2E07442A1468024240427434C46382C00DDDBE01F2C00DD44E1C6
:404780004E462024A41B3E00A640A246B0464C462E00E640B4464646644626435446A5406C1EA54134002C434D46EF400D1B28E04A4643464D461A4300D0A5E600230024B2
:4047C0000025DEE61F2A5ADC66462022921B060096409146B04662460E00D640424616434A4691404A1E9141020060463143C240E4E63C002C435AD0F443A146002C52D19B
:404800004D1BA9428941C71B49427F1A14009A4675E69E4A944200D0C7E613E600227FE700208FE7002C00D0C8E03B002B4300D10FE103000B4300D104E66918A9429B4152
:404840003F185B42DF193B0200D41AE1904B0D001F406446F6E59A4689E63A002A43002C5CD1002A75D102000A4300D1CAE007000D009A46E6E564460022002581E662462C
:404880000600203AD6406246B046202A00D1B7E040226646921B904001434246481E8141114300228AE6794CA24200D061E707000D0014009A46C5E5002C41D13C002C4371
:4048C00078D0F443A146002C20D0704CA24271D04C46382C00DDB2E01F2C00DDBCE02026341BA2463C005646B4404E46A0462C00F440A446444666463443A4465446A54009
:4049000064466E1EB54125434C46E7406D188D4289413F184942CF19140056E6002A2FD102000A4300D184E007000D009A46574C88E53D436F1EBD41ECB200270D1B60E701
:40494000524CA24236D0744280263604A1463743BEE702000A4300D174E56A1A90464545B6413A1A7642921B9446120200D4F7E54D1BA9428941C71B49427F1A9A4661E51F
:4049800002000A433AD0ED087C072C438025FA082D032A4208D0C7082F4205D145072C003A009A46C9080C43670FD200E5001743364C47E507000D00140043E53A002A43A8
:4049C00043D002000A4319D0ED087C072C438025FA082D032A4207D0C6082E4204D147073C003200C9080C43D700620FE50017439A46264C26E50022002544E5234C21E5B3
:404A0000002049E700230025BBE54C463E00203CE6404C46B446202C31D040244E46A61BB7403D436C1EA54164462C4300270D1BE7E6802200231203144C0025A1E53D43D9
:404A40006F1EBD410027EDB260E707000D000F4CF8E407000D00F5E44E463C00203EF440A0464C46202C0ED040244E46A41BA7403D436F1EBD4144460027254346E700274C
:404A8000CFE70D0073E50027F2E7C046FF070000FFFF7FFF70B50E4E0C031D0349005B00240B490D2D0B5B0DB14204D0084900208B4208D070BD04430120002CFAD1044924
:404AC00000208B42F6D115432800451EA841F1E7FF0700004200120E511C4302C9B270B55D0AC40F012915DDE02189008C466D071B0B6244002128000D0D2D052B431C4D46
:404B000052052B40520813435B00E4075B082343190070BD002A15D1002D1FD0280000F0B9F80A281DDC0B232A001B1ADA4013000200153295400F4A1B03121A52051B0B96
:404B4000520DD7E7002D06D080221B0B120313436D07094ACEE7084A0023CBE700220023C8E703000B3B9D402B000025E3E7C046FFFF0F8089030000FF0700004B0070B576
:404B80005E0D0C03751C640A420F6D052243C90FC4006D0D012D2ADD3B4BF318FE2B1ADC002B42DD8001451EA841D2001043620F0243500704D00F201040042800D004328B
:404BC0008020C004104021D00133FF2B03D09201520ADBB201E0FF2300225202520ADB0513435B00C9075B080B43180070BD002E07D01443EFD08020D20080040243FF23BF
:404C0000D7E722430023002A03D00522D208FF2B03D05202520ADBB2DFE7002A32D08020C00302435202520AD7E71800173014DB8020000402431E20C01A1F280FDC250048
:404C4000124BF3189D406E1EB5419A402B0013432200C2401A430023ABE70023D5E702256D42EB1A1500DD40202809D0084BF3189A401443621E9441220000232A4398E7BA
:404C80000022F6E70022A8E780FCFFFF82FCFFFFA2FCFFFF1C2101231B04984201D3000C10391B0A984201D3000A08391B09984201D30009043902A2105C40187047C046D4
:404CC00004030202010101010000000000000000014B18687047C046500100200E4B70B500251E000D4CE41AA410A54204D0AB00F35898470135F8E702F070FB084B002565
:404D00001E00084CE41AA410A54204D0AB00F35898470135F8E770BDE8730000E8730000E8730000F073000003008218934202D019700133FAE77047F0B58BB014001D1E41
:404D4000129906DA802424061B191D0014002D2300E000230B702023149E03229E43462E07D03300453B59424B411099013ACB18109309AB049308AB0393139B00920293B4
:404D8000109B220001932B0000F0FCFC0700472E02D1119BDB072DD5109BFB180793462E14D13B78302B0CD10022002320002900FDF78AFA002804D10123109A9B1A139AD1
:404DC0001360139B079A1B68D31807930022002320002900FDF778FA3022002802D0079B099307E0099B0799994203D9591C09911A70F7E73800099B159ADB1B13600BB063
:404E0000F0BDF7B52B2307000C000270861C002901DA2D234C427B70092C1CDD6B46DD1D20000A21FDF73AFA013D3031297020000A21FDF74DF904000928F1DC013D30342A
:404E40002C706B4607333000AB4209D92B78013533700136F5E73023E4183370B01C7470C01BFEBDF0B595B00C000A920B931A9D099001F04DFA036818000D9300F0F4FB2B
:404E80000023129323680E900C930C99277E2B680722C90501D59B1800E0073393431A0008322A601A685B68A264E3640122E56CA66C6B005B080F935242C04B30000F9938
:404EC000FFF7E8FD002819D10122BC4B524230000F99FDF709FA002810D10022002330002900FDF7F7F9002803D023002D2243331A70B34D472F0ED8B24D0CE032002B009C
:404F000030002900FFF7C6FD002800D19AE1AE4D472F00D8AD4D03230C9A236101339A432260002642E0672F00D193E1472F00D190E10C9A0021134312AA059211AA03922A
:404F4000232223600691019308A9636852180292009332002B0004970998FFF7EDFE20233A0005009A43472A00D18EE11199652F00D996E1200001393A0050301191FFF76D
:404F800040FF129A060083182361012A00DD85E12268D20700D581E1232308AA9B181B78002B03D023002D2243331A700B9B13AA009321000A9B099800F0A4F9431C02D10F
:404FC000012040429BE12268530501D4236964E0652F00D8CCE0A06CE16C00220023FDF773F900282CD00123794A0A9909980B9DA847431CE4D0119B129A934208DB236861
:40500000DB0705D4236800259B0700D50FE113E10B9D0E9B0D9A0A990998A8470025431CCED0129B013B9D42ECDA220001231A320A9909980B9EB047431CC1D00135F0E75C
:40504000119B002B2BDC0123614A0A9909980B9EB047431CB4D0119B002B05D1129B002B02D12368DB07CDD50B9E0E9B0D9A0A990998B0470026431CA2D0119B5B429E4201
:405080000ADA220001231A320A9909980B9FB847431C95D00136F0E7129B2A00ACE0A36D129E9E4200DD1E00002E05DC00230C93F343DB170F9315E033002A000A9909988C
:4050C0000B9FB847431CF1D17AE7220001231A320A9909980B9FB847431C00D170E70C9B01330C930F9BA26D0C993340D31A9942EBDBAE18119B129A93420DDB2368DB075E
:405100000AD4129B119AED18AD1B9B1A9D4200DD1D00002D09DC11E00E9B0D9A0A9909980B9FB847431CECD14AE72B0032000A9909980B9EB047431C00D141E7EF43FB1774
:4051400000260C930AE0220001231A320A9909980B9FB847431C00D132E70136119A129B0C999B1A2A000A409B1A9E42EBDB49E7129B012B02DC01231A4245D001232A0036
:405180000A9909980B9FB847431C00D118E70E9B0D9A0A9909980B9FB847431C00D10FE7A06CE16C00220023FDF78EF8002801D000251AE0129B6A1C013B26E0FFFFEF7F5F
:4051C0007E7200007A72000086720000827200008A720000220001231A320A9909980B9FB847431C00D1EBE60135129B013B9D42F0DB2200330050320A9909980B9DA847F0
:40520000431C00D0FEE6DBE62A000A9909980B9DA847431CEDD1D3E62200012319320A9909980B9EB047431C00D1C9E60135E368139A9B1A9D42EFDB139BE06898425EDAD7
:4052400018005CE080236268DB00511C00D06AE6073202E0002A02D10122626069E60C9908A80B430021069112A9059111A90391232109182360019300922B000497029158
:4052800032000998FFF758FD0500119BDA1C02DB626893421CDD023FFFB267E6013323617AE6662F15D16368002909DD2161002B02D12268D2071ED50133591821611AE011
:4052C000002B03D101222168114213D09A1C11E06727119B129A934206DB22682361D20709D50133236106E00121002B01DC4918C91A8A182261119B0026A3654CE615B0C3
:40530000F0BDC046F7B5170001938A680B6900900C00934200DA130022003B6043321278002A01D001333B6023689B0602D53B6802333B60062523681D401ED02300433309
:405340001B785A1E9341226892061CD53020E1184331087021005A1C45310978A2184332023311700FE022000123193201990098089EB047431C0ED00135E3683A689B1A2F
:405380009D42F0DBDAE72200019943320098089DA847431C02D10120404220E006232068E1683A6803400025042B03D18D1AEB43DB171D40A3682269934201DD9B1AED1822
:4053C0000027BD420AD0220001231A3201990098089EB047431CDED00137F2E70020FEBDF0B58BB006920A0043320793059004920A7E0C00109B6E2A00D1ABE011D8632AEE
:4054000022D009D8002A00D1B5E0582A00D0C5E045310A70814A4FE0642A1DD0692A1BD0BCE0732A00D1AAE009D86F2A29D0702A00D0B3E0202209680A43226037E0752AF3
:405440001FD0782A33D0A9E00E001A684236111D196013683370A4E021681A68080606D4490604D5111D19600023D55E02E0111D19601568002D3BDA2D23049A6D4213703E
:4054800036E021681A68080606D4490604D51568111D1960ADB202E0111D196015685F4B227E039308276F2A1DD00A271BE022007821453211705A4A19680392081D226855
:4054C00018600D68100602D4500600D5ADB2D30702D520231A4322601027002D03D1202322689A4322602300002243331A7002E00A274A4B03936368A360002B09DB04228C
:40550000216891432160002D05D1049E002B11D07BE0002D79D0049E28003900FCF7D4FD039B013E5B5C280033703900FCF746FD051EF1D1082F09D12368DB0706D563686D
:405540002269934202DC3023013E3370049B9B1B23612BE009681A68080607D4490605D5111D19601368A28A1A8004E0111D1960136862691A600023049E236116E01A68DB
:40558000111D1960166800216268300000F0CEFE002801D0801B6060636803E0260042363270012323610023049A1370079B09AA00932100069B0598FFF7A4FE431C02D1B0
:4055C0000120404227E02369320006990598079DA847431CF4D0236800259B070FD4099BE068984217DA180015E022000123193206990598079EB047431CE1D00135E3685E
:40560000099A9B1A9D42F0DBE9E72600039B42361B7833708EE70BB0F0BDC0468C7200009D7200000EB410B59DB002A9029008610B48822488604861012040421FABC8817C
:40564000084804CBA400006801938C8101F088FA0023029A13701DB010BC08BC03B01847FFFFFF7F500100200023C25C0133002AFBD1581E7047F0B503690C6989B00700EF
:40568000059100269C4279DC0B00013C1433A50003935B1904930300143302935D19049B28681B68591C0193FCF788FC0190B04233D0039B02989C460696634604CB9C4609
:4056C000019B91B25943120C5A4389190B0CD3180793069A1E0C038889B29B1802685B1A110C6A46928B8A1A1914521811149BB21204134308C0049B06916345DDD22B6829
:40570000002B0AD1029B043DAB4201D33C6104E02B68002BFAD1013CF4E70599380001F029F8002829DB0020019B02990133039A019340CA0B881818B3B2C31A0868360C11
:40574000000C801B1D14451928149BB22D042B4308C1049B9342ECD2029AA300D3181A68002A0AD1029A043B9A4201D33C6104E01A68002AFAD1013CF4E7019E300009B0FC
:40578000F0BD0000F0B516001F00446A9DB00490259D06960797002C08D1102000F0BCFD049B5862446084600460C460049B5B6A196800290BD05A68012393404A608B6059
:4057C000049800F0FFFD0022049B5B6A1A60079B002B05DA01232B607B005B08079301E000232B60079CC84B220019931A409A4219D1C64B249A1360069AC54B002A02D12C
:40580000240300D1C34B269A1800002A01D100F07DFDD978DA1C002900D00532269918000A6000F073FD069E079F0022002330003900FCF749FD051E0ED00123249A136085
:40584000B54B269A1800002A01D100F05FFDB34A26990A6000F05AFD1AAB01931BAB009332003B00049801F00BF8630005905B0D09D03A03AA4C120B1443AA4A30002100C7
:405880009E1817951AE01A9B1B9A9E18A64BF318202B08DDA54A0698B218D0404022D31A9C40204303E020220698D31A984001F031FB01239E4C013E0919179300229D4B83
:4058C000FEF794FD9C4A9D4BFEF716FB9C4A9D4BFDF7C2FB040030000D0001F0D9FA9A4A9A4BFEF709FB02000B0020002900FDF7B3FB04000D0001F095FA002203900023A7
:4059000020002900FCF7E6FC00280DD0039801F0BFFA02000B0020002900FCF7D5FC43424341039AD31A039301231693039B162B11D88749DB00C91808684968069A079B38
:40594000FCF7DCFC002805D0039B013B03930023169300E016901A9B9E1B00230B93013E0C9604D50C9B5B420B9300230C93039B002B08DB039A0C9B944663440C930023DD
:405980001192089307E00B9B039A9B1A0B935342089300231193229B0125092B25D8052B02DD0025043B2293229B981E032824D801F02EFA060E0204012302E0012308E01A
:4059C00000231093239B002B20DD1F000A9321E00023239A1093039B9F187B1C0A930123FA18002A16DD130014E0012700237F42229310950A97123305E0012701237F429A
:405A000010930A9711330022239203E001273B000A972397049A546A00226260043211001431994204D86168520001316160F6E76168049800F08EFC049B20605B6A1B68B2
:405A40000D930A9B0E2B00D981E1002D00D17EE1069B079C14931594039B002B31DD0F223B491340DB00CB185C681B680E930F94039B02241D11EB060AD514981599354BB8
:405A800015401A6A5B6AFDF713FE069007910134304E002D0ED001231D4208D00E980F99E41832687368FEF727FA0E900F916D100836EEE70E9A0F9B06980799FDF7F8FDE0
:405AC0004CE0039B02245D42002D49D0149815990F231F4A2B40DB00D3181A685B68FEF70BFA0023069007911A4E2D11002D33D00122154205D0A41832687368FEF7FCF9DB
:405B000001236D100836F1E70000F07F0F270000B7720000AE7200008A7200008B7200000000F03F01FCFFFF3204000012040000000010FE0000F83F61436F63A787D23F57
:405B4000B3C8608B288AC63FFB799F501344D33FC8720000A0730000002B01D006900791169B002B1DD0069D079E0022C74B28003100FCF7AFFB002813D00A9B002B10D0CF
:405B8000002F00DCDFE0039B3100013B0E930022BF4B2800FEF7B0F90134069007913E0002E0039B0A9E0E93200001F071F9069A079BFEF7A1F90022B64BFDF74DFAB64A69
:405BC00012901391129C139D9446139B634418931D00002E1CD1069807990022AF4BFEF705FC2200189B06900791FCF787FB002800D054E2AA481399844661440B00069843
:405C000007992200FCF766FB002800D03DE29AE0109A731EA349DB00002A49D0CB181A685B680020A049FDF743FD2B002200FEF7DDFB129013910D9D0698079901F0F2F8F0
:405C4000040001F025F902000B0006980799FEF7CDFB01356B1E30341C70129A139B06900791FCF737FB002800D02EE3069A079B00208649FEF7BAFB129A139BFCF72AFB57
:405C8000002800D0C7E00D9BEB1AB3425BDA1298139900227E4BFEF72FF9002212901391069807997A4BFEF727F906900791C3E7C9182200086849682B00FEF71DF90D9CB5
:405CC00012901391A5190698079901F0ABF8060001F0DEF802000B0006980799FEF786FB303626700134069007910022A54222D16D4B12981399FDF7AFF902000B00069890
:405D00000799FCF7FBFA002800D084E0129A139B00206549FEF76AFB02000B0006980799FCF7D8FA00280ED06B1E1A78302A00D0CBE21D00F8E706980799554BFEF7DCF852
:405D400006900791BFE7149B159C069307941B9B002B00DA81E0039A0E2A00DD7DE0D300504AD3185C681B6808930994239B002B15DA0A9B002B12DC00D088E108980999A8
:405D80000022464BFEF7B8F8069A079BFCF7C0FA0A9B08931E00002800D07BE182E10D9D069E079F089A099B30003900FDF780FC01F038F8040001F06BF8089A099BFEF7C0
:405DC0009BF802000B0030003900FEF70FFB220001356B1E30321A700D9B0A9AEB1A9A422ED102000B00FDF737F906000F0002000B0008980999FCF76DFA00280FD108980B
:405E0000099932003B00FCF75FFA002800D15EE2E30704D45BE20E9B039300E01D006B1E1A78392A08D10D9A9A42F7D1039A0D990132039230220A701A7801321A7046E2A3
:405E40000022134BFEF758F80022002306000F00FCF73AFA0028A5D039E2109A002A44D0229A012A0BDC179A002A02D00F4A9B1802E036231A9A9B1A089D0B9C29E00A9B17
:405E80005D1E089BAB4213DB5D1B18E00000F03F0000244000001C400000C0FC000014400000C07CC87200000000E03F33040000089B0895EA1A0025119B9B1811930A9B9D
:405EC000002B04DA0B9B0A9A9C1A002301E00B9C0A9B0B9A0121D2180B920C9A0498D3180C9300F00FFB060002E0089D0B9C109E002C0ED00C9B002B0BDD0C9A23009442F0
:405F000000DD13000B9AE41AD21A0B920C9AD31A0C93089B002B20DD109B002B17D0002D11D031002A00049800F07EFB059A01000600049800F0EFFA05990E90049800F03A
:405F400041FA0E9B0593089B5A1B06D000E0089A0599049800F068FB05900121049800F0D1FA119B0890002B00D1C0E11A000100049800F059FB229B0890012B17DC002525
:405F8000069BAB420ED1079B1B03AB420AD1199B079A134206D00B9B013501330B930C9B01330C93119B0120002B0DD000E00025089B089A1B690E9303339B00D318586884
:405FC00000F056FA2023181A0C9BC0181F23184009D001331B1A042B02DD1C23181A03E0042B08D018001C300B9B24181B180B930C9B1B180C930B9B002B05DD1A0005992D
:40600000049800F065FB05900C9B002B05DD1A000899049800F05CFB0890169B002B1DD00899059800F0A6FB002817DA039B0A22013B039305990023049800F0DCF9109BDB
:406040000590002B00D159E1310000230A22049800F0D1F90600002F37DC33E00A9B0A9F002B2ADC229B022B27DD002F12D108993B000522049800F0BEF908900100059829
:4060800000F078FB00280DDC04E0089602E000231E000893239B0D9DDB4303930AE00E9B089603930D9B0D9A5D1C31231370039B013303930A960026F3E0109B002B04D1FE
:4060C0000D9DB5E0229B022BCFDC002C05DD31002200049800F0FCFA06000A96002D12D07168049800F036F93100040033690C319A1C92000C3000F024F901222100049821
:4061000000F0E6FA0A900D9B7D1E0B935B190E9308990598FFF7AFFA310010900400059800F028FB0A9A05000899049800F03DFB01230C93C36830340700002B04D1010035
:40614000059800F017FB0C903900049800F03AF90C9B229A134308D1069A0133134204D1392C2AD0002D1CDC1DE0002D06DB229B1D431BD10123069A134217D10C9B002BF1
:4061800011DD05990122049800F0A2FA0899059000F0F0FA002802DC05D1E30703D5392C0BD0109C31340B9B5D1C0FE00B9B5F1C0C9B002B0CDD392C05D10B9B0B9A5D1C20
:4061C0003923137057E03D000B9B01341C7068E00B9B0E9A3D001C7093423CD000230A220599049800F007F90A9B05909E4208D1310000230A22049800F0FDF806000A9098
:406200000DE0310000230A22049800F0F4F8002306000A220A99049800F0EDF80A900B9776E700230A220599049800F0E4F8059008990598FFF71FFA0D9B3030287001356A
:406240000400EB1ABB42ECDB3D1E00DC01250A9600260D9B5D1905990122049800F038FA0899059000F086FA002804DC13D1E30701D410E01D006B1E1A78392A08D10D9A35
:406280009A42F7D1039B013303933123137008E001321A7005E06B1E1A78302A01D11D00F9E70899049800F08DF80A9B002B0ED0002E05D09E4203D03100049800F082F8E0
:4062C0000A99049800F07EF801E00E9B03930498059900F077F800232B70039B249A01331360269B0D98002B10D01D600EE0229B012B00DC43E6119D012065E6002F00DD8F
:40630000DEE6229B022B00DCDAE6AEE61DB0F0BD004870475401002010B5034B0100186800F05CFB10BDC04650010020C9B28218904204D003788B4202D00130F8E700206D
:406340007047002310B59A4203D0CC5CC4540133F9E710BD70B5466A04000D00002E07D11020FFF7D9FF6062466086600660C660666AF368002B09D0636AAA00DB689B184E
:40638000186800280ED002681A6017E021220421200000F0C9FA636AF060DB68002BEBD100200EE001210E00AE40721D9200200000F0BAFA0028F3D04560866000230361EC
:4063C000C36070BD70B5456A06000C00002D07D11020FFF7A1FF7062456085600560C560002C07D0726A6368D2689B00D3181A6822601C6070BDF7B5070008000C000D6962
:406400001E00002101921430019A0388013153439B190668360C56431A0C9446B4446246160C120494469BB2634408C08D42EBDC002E1BD0A3689D4212DB63683800591CEF
:40644000FFF788FF2100236901909A1C92000C310C30FFF776FF21003800FFF7B3FF019C2B1D9B00E31801355E6025612000FEBD00220300010C914201D103041032190E1D
:4064800001D108321B02190F01D104321B01990F01D102329B001000002B03DB20205B0000D5501C70470722036810B501001A400CD001240020234223D10222134203D0F8
:4064C000E34020000B601CE09B0818E098B2002801D110221B0CD8B2002801D108321B0A180701D104321B09980701D102329B08D80704D45B082020002B02D001321000AA
:406500000B6010BD10B50C000121FFF723FF01234461036110BDF0B50B691400126989B00D00934201DA25000C002F692669AA68BB1969680193934200DD0131FFF70AFFFA
:406540000200BB1914329B00D3189C46002113000290634501D202C3FBE71435BF00EB191434B6000593A31903950793079B9C4251D2208800281ED015000026039F08CF0A
:40658000069504936B461B8A434319002B88CB1804999B19090C41432E68360C89191E0C89190E0C9BB209040B4308C5059BBB42E5D8069B5E6023681D0C1FD000211000D2
:4065C0001368039F04913E8801686E43090C7118049E9BB289190E043343036008CF86881B0C6B43090C9B195B18190C0491059906900430B942E6D806994B600434043266
:40660000B4E704235B429C4463461B68002B05D1019B013B0193019B002BF2DC029B019A18001A6109B0F0BD0323F7B5134005000E001400002B08D02349013B9A00525881
:4066400000233100FFF7D7FE0600A310019338D06C6A002C07D11020FFF75EFE6862446084600460C4606F6ABC68002C10D117492800FFF747FF0023B8600400036007E019
:40668000019B5B1001931CD02068002810D004000122019B1342F3D0310022002800FFF73AFF070031002800FFF78CFE3E00E7E7220021002800FFF72EFF002320600360BE
:4066C000E5E73000FEBDC0469073000071020000F0B50C0017002369551185B0EB180193013300934968A3680290009A934202DA01315B00F9E70298FFF72CFE0023020035
:40670000060019001432AB4203DA980011500133F9E7EB43DB171D402300AD0055192269143392009A1894461F22174014D00132D21B0392002219682800B9400A4304C567
:4067400004CB0399CA409C45F5D84260002A07D0019B0233009303E004CB04C59C45FBD8009B0298013B33612100FFF72BFE300005B0F0BD03690A6910B59B1A0400181E56
:4067800012D1930014341431E218C918043A043913680868834204D083429B410120184302E09442F2D3002010BDF0B50C0085B00700110020001500FFF7DCFF061E07D175
:4067C00001003800FFF7C6FD01234661036155E000230193984204DA23002C001D000123019361683800FFF7B5FD019B26692F00C3601434B300E318020002932B69002544
:4068000014379B00FB180393143208CC69469C4608CF0432009363468B808B885D19009B9BB2EB1A65460193009B2D0C190C019B691A1D14131F9C466B4649199B880D1461
:4068400009040B4361460B60039BBB42DDD8029913008C420BD202CC8BB25B191D14090C49190D149BB209040B4308C2EFE7043B1A68002A01D1013EF9E7066105B0F0BDCD
:40688000F7B51D000121089F1400FFF763FD2B036D0006001B0B6D0D02D08022520313430193002C18D068460094FFF7FCFD009C002809D0019B20211A00091A8A40C3401F
:4068C00022437261019300E07461019CB461631E9C410134346107E001A8FFF7E4FD0124019B346173612030002D06D00B4BED1835232D183D60181A0BE0094BC018094B27
:406900003860E3189B00F3185869FFF7B1FD6401201A099B18603000FEBDC046CDFBFFFFCEFBFFFFFFFFFF3F4A4370B51100140000F054F8051E03D022000021FEF7F4F916
:40694000280070BD70B50500002944D00C1F2368002B00DAE418280000F027FA1E4A13681100002B02D16360146031E0A3420DD92268A018834203D118685B68821822602C
:4069800063600C6024E0A24203D813005A68002AF9D11E689819A0420BD12168711858181960824214D110685268411819605A600EE0A04202D90C232B6009E02168601876
:4069C000824203D1106852684118216062605C60280000F0EBF970BDEC010020032370B5CD1C9D43083506000C2D01D20C2501E0002D01DBA94202D90C23336048E03000E1
:406A000000F0D3F9234B1C681A002100002913D00B685B1B0DD40B2B02D90B60CC181EE08C4202D1636813601AE04B6863600C0016E00C004968E9E7174C2368002B03D16E
:406A4000300000F08BF920602900300000F086F9431C18D00323C41C9C43A0420DD12560300000F0A3F9200007220B30231D9043C31A0ED05A42E2500BE0211A300000F097
:406A80006DF9431CEBD10C233000336000F08EF9002070BDEC010020E8010020F0B58E6885B007000C00039201939E4243D890238A89DB001A423ED00325096923680198B9
:406AC0005B1A029363695D43EB0F5D19029B6D1001331B18AB4200D91D00530510D529003800FFF77BFF061E14D0029A2169FFF728FCA289194B134080221343A38112E006
:406B00002A00380000F053F9061E0CD121693800FFF718FF0C23402201203B60A38940421343A38117E0029B2661F61826606561019EED1AA560019BB34200D21E0032009F
:406B40000399206800F01CF90020A3689B1BA36023689E19266005B0F0BDC0467FFBFFFFF0B59FB0029005938B890F0016001B0610D50B69002B0DD14021FFF72FFF386069
:406B80003861002804D10C23029A01381360D8E040237B61002306AD6B6120336B761033AB7634002378002B03D1A31B049312D003E0252BF9D00134F4E7A31B320039005D
:406BC0000298FFF76BFF431C00D1B4E06A69049B944663446B612378002B00D1ABE00122002352426A6002A95432521801342B60EB60AB601370AB65534E2178052230007D
:406C0000FFF794FB002807D00123801B83402A68013413432B60EFE72B68DA0604D55322202102A8121811701A0704D553222B2102A81218117022782A2A03D0099B0020E4
:406C40000A210EE0059A111D12680591002A01DB099204E05242EA60022213432B6001340BE02278303A092A04D84B4301349B180120F6E7002800D0099323782E2B1ED198
:406C800063782A2B0AD1059B02341A1D1B680592002B01DA01235B42079310E000230A201A0001346B6021783039092904D84243013452180123F6E7002B00D00792234EB0
:406CC000217803223000FFF731FB002806D04023801B83402A68013413432B60217806221B48661C2976FFF721FB002812D0194B002B06D10722059B0733934308330593AA
:406D000014E005AB00933A00134B29000298FEF7A9F807E005AB00933A000F4B29000298FEF75EFB0390039B013304D06B69039A9B186B6135E7BB890B985B0601D50120D8
:406D400040421FB0F0BDC046C8730000CE730000D2730000654E00009D6A0000002370B5064C050008002360F9F7C4FC431C03D12368002B00D02B6070BDC04680020020A1
:406D800010B5884202D98B18984201D3002305E09B1A013A08D3995C8154FAE7934203D0CC5CC4540133F9E710BD70477047F8B506000C001500002904D11100FFF70EFE7E
:406DC000040018E0002A03D1FFF7BCFD2C0012E000F013F885420ED929003000FFF7FEFD071E07D021002A00FFF7ABFA21003000FFF7A8FD3C002000F8BD0B1F1A68101F1F
:406E0000002A04DA891804390B68D0180438704702B4714649084900095C49008E4402BC7047C0460B0330B5134D1A0B4B005B0DC90F0024AB4211DD104CA34210DC802449
:406E4000640322430E4CE41A1F2C0CDD0D48C31ADA4013005C42002900D11C00200030BD094BCC18FAE7E040084CA44663449A4013000343EEE7C046FE0300001D0400004C
:406E80003304000013040000FFFFFF7FEDFBFFFF70B5002830D0C317C4185C40C50F2000FDF7F8FE174B184A1B1AD21A1F2A18DD164AD21A9440002224035B05240B5B0D22
:406EC0000021100024030A0D1205240B1443104A1B0514401C436400ED0764082C43210070BD210091400A000B21081AC4405B052403240B5B0DE3E7002500230024002214
:406F0000DEE7C0461E0400003304000013040000FFFF0F8070B5051E28D0FDF7BBFE154B154A1B1AD21A1F2A16DD2C00134A0025D21A94405A052403240B520D00212403B6
:406F40000B0D240B1B0523430D4C1205234013435B002800590870BD0B212C00081AC440954024035A05240B520DE7E700220024E4E7C0461E04000033040000130400004E
:406F8000FFFF0F8000000000252E3266636D2C20252E32660000000043000000252E32666C742C20252E326600000000250000004552524F52000000252E3266636D2C2057
:406FC000252E3266636D0000252E32662C252E33662C252E32662C252E32660000300F40000400400F400004800D0A0512011901240C2D012E023008320234013604370125
:407000003E104030410545D14720482349FF4AFF4BFF4DA04F04501852805405580459045A045B045F01604062C06440654066C068C06AC06CC06EC0001009021020134065
:4070400018101A061B0122402B0130204010482249015002510259015A847340C002C208C405CA08CC04D002D208D60B34013E1058045F011D108D10B2015310D4040C02B1
:40708000602070028C20B310C204D802DC01E002E80410011101000001000F4027300F401A310F4004320F4003330F4002420F400A430F4002600F40030405060708090A53
:4070C0000B0C0E0F101112131415161718191B1C1D1E1F2021222325262728292A2B2E2F30313233343500000E0A0E0000000000000A0A0404040000000E0A0E0808000058
:40710000000E0A0C0A0A0000000E080C080E0000000E080E020E0000000E080E020E0000000404040004000061636F73000000007371727400000000D6270000FA260000DA
:40714000B827000090270000B827000084270000B827000090270000FA260000FA26000084270000902700003C2800003C2800003C280000BE270000FA260000FA26000066
:40718000A42700008E270000A427000084270000A42700008E270000FA260000FA260000842700008E2700003C2800003C2800003C28000048280000342B0000922A000002
:4071C000922A0000902A0000262B0000262B00001C2B0000902A0000262B00001C2B0000262B0000902A00002C2B00002C2B00002C2B0000B62B0000A03800006E37000070
:407200007438000064370000743800007E38000074380000643700006E3700006E3700007E380000643700005A3700005A3700005A370000D03A0000E8400000A83F0000F7
